:100000000C9464050C944E160C9427160C948C05D5
:100010000C948C050C948C050C948C050C948C051C
:100020000C948C050C948C050C948C050C948C050C
:100030000C948C050C948C050C948C050C948C05FC
:100040000C94DD150C948C050C94DA160C94B416F3
:100050000C948C050C948C050C948C050C948C05DC
:100060000C944E0C0C948C0500000000240027001A
:100070002A0000000000250028002B0000000000DE
:1000800023002600290004040404040404040202DA
:100090000202020203030303030301020408102007
:1000A0004080010204081020010204081020000012
:1000B0000008000201000003040700000000000027
:1000C0000000000103070F1F3F7F0080C0E0F0F831
:1000D000FCFE00000000003E5B4F5B3E3E6B4F6B42
:1000E0003E1C3E7C3E1C183C7E3C181C577D571C19
:1000F0001C5E7F5E1C00183C1800FFE7C3E7FF0092
:1001000018241800FFE7DBE7FF30483A060E2629DF
:10011000792926407F050507407F05253F5A3CE7A2
:100120003C5A7F3E1C1C08081C1C3E7F14227F2268
:10013000145F5F005F5F06097F017F006689956A33
:10014000606060606094A2FFA29408047E040810BE
:10015000207E201008082A1C08081C2A08081E10E7
:100160001010100C1E0C1E0C30383E3830060E3E9F
:100170000E06000000000000005F000000070007FE
:1001800000147F147F14242A7F2A12231308646228
:1001900036495620500008070300001C2241000089
:1001A00041221C002A1C7F1C2A08083E08080080E7
:1001B000703000080808080800006060002010087F
:1001C00004023E5149453E00427F40007249494980
:1001D000462141494D331814127F102745454539B2
:1001E0003C4A4949314121110907364949493646B6
:1001F0004949291E00001400000040340000000896
:100200001422411414141414004122140802015938
:1002100009063E415D594E7C1211127C7F494949C5
:10022000363E414141227F4141413E7F494949415A
:100230007F090909013E414151737F0808087F0089
:10024000417F41002040413F017F081422417F400F
:100250004040407F021C027F7F0408107F3E4141E6
:10026000413E7F090909063E4151215E7F09192956
:1002700046264949493203017F01033F4040403F40
:100280001F2040201F3F4038403F63140814630381
:10029000047804036159494D43007F414141020400
:1002A000081020004141417F040201020440404007
:1002B0004040000307080020545478407F284444FD
:1002C000383844444428384444287F385454541817
:1002D00000087E090218A4A49C787F080404780012
:1002E000447D40002040403D007F102844000041F4
:1002F0007F40007C047804787C0804047838444407
:100300004438FC1824241818242418FC7C080404FD
:1003100008485454542404043F44243C4040207C66
:100320001C2040201C3C4030403C44281028444CB9
:100330009090907C4464544C440008364100000086
:10034000770000004136080002010204023C262327
:10035000263C1EA1A161123A4040207A38545455DF
:1003600059215555794122545478422155547840A9
:1003700020545579400C1E52721239555555593931
:100380005454545939555454580000457C41000286
:10039000457D420001457C407D1211127DF02825EB
:1003A00028F07C545545002054547C547C0A097F25
:1003B0004932494949323A4444443A324A48483039
:1003C0003A4141217A3A42402078009DA0A07D3DEB
:1003D0004242423D3D4040403D3C24FF2424487E73
:1003E0004943662B2FFC2F2BFF0929F620C0887E5E
:1003F000090320545479410000447D413048484A63
:1004000032384040227A007A0A0A727D0D19317D15
:100410002629292F28262929292630484D402038E9
:100420000808080808080808382F10C8ACBA2F10A8
:100430002834FA00007B000008142A142222142A0F
:1004400014085500550055AA55AA55AAFF55FF5541
:10045000FF000000FF00101010FF00141414FF0034
:100460001010FF00FF1010F010F0141414FC001412
:1004700014F700FF0000FF00FF1414F404FC141430
:1004800017101F10101F101F1414141F001010102D
:10049000F0000000001F101010101F10101010F0BE
:1004A00010000000FF101010101010101010FF109E
:1004B000000000FF140000FF00FF00001F101700E5
:1004C00000FC04F414141710171414F404F40000BE
:1004D000FF00F714141414141414F700F714141470
:1004E000171410101F101F141414F4141010F0100F
:1004F000F000001F101F0000001F14000000FC147B
:100500000000F010F01010FF10FF141414FF14106E
:1005100010101F00000000F010FFFFFFFFFFF0F0C1
:10052000F0F0F0FFFFFF0000000000FFFF0F0F0FD3
:100530000F0F3844443844FC4A4A4A347E020206CB
:1005400006027E027E0263554941633844443C04FE
:10055000407E201E2006027E020299A5E7A5991C76
:100560002A492A1C4C7201724C304A4D4D30304899
:10057000784830BC625A463D3E494949007E0101F7
:10058000017E2A2A2A2A2A44445F444440514A448C
:100590004040444A51400000FF0103E080FF00005A
:1005A00008086B6B083612362436060F090F060052
:1005B0000018180000001010003040FF0101001F5B
:1005C00001011E00191D1712003C3C3C3C000000BC
:1005D00000002200FF2100DB40A4A62EAFDA02813A
:1005E000DA1281DA02818F2000A1C8D300408DAEDB
:1005F000D580A8000060000000000000000000009E
:1006000000000000E000000000000000000000000A
:10061000000001E0000000000000000000000000F9
:100620000001F000000000000000000000000000D9
:1006300003F00000000000000000000000000007C0
:10064000F00000000000000000000000000007F8BB
:10065000000000000000000000000000000FF80093
:10066000000003C0007E000001E0007F0FF80000E2
:100670000003C000FE000001E000FFEFF8000000F2
:1006800003C000FE000001E000FFFFF800000003CF
:10069000C000F00000000F007FFE7FC0000003C01C
:1006A00000F00000000F003FFE7FF83FF1FBCFFCA1
:1006B000FEF3BC3DEFE01FFE7FFF7FFBFFDFFEFE92
:1006C000FFBC3DEFE01FC6FFFF7FFBFFDFFEFEFF2D
:1006D000BC3DEFE00FE3C7FE787BC3DE1EF0FFBC3E
:1006E0003DEF0007FF87FC787BC3DE1EF0F83C3D42
:1006F000EF0001FFFFF0007BC3C01EF0F03C3DEFB8
:100700000001F37FE03FFBC3CFFEF0F03C3DEF0084
:1007100003E33F807FFBC3DFFEF0F03C3DEF0007CB
:10072000E73C00787BC3DE1EF0F03C3DEF0007FFA6
:10073000BE00787BC3DE1EF0F03C3DEF0007FFFEFD
:1007400000787BC3DE1EF0F03C3DEF000FFFFE00A3
:100750007FFBFFDFFEF0F03FFDEFE00FFFFF007FCC
:10076000FBFFDFFEF0F03FFDEFE00FF9FF003E7909
:10077000F9CF9EF0F01F3DE7E01FF1FF0000000001
:1007800000000000000000001F80FF007FFFFFFF4F
:10079000FFFFFFFFFFFFE01C007F007FFFFFFFFE6A
:1007A000B46D888D18E000001F007FFFFFFFFE95ED
:1007B000AD7DB577E000000F007FFFFFFFFEA5AD28
:1007C0009D8D19E0000006007FFFFFFFFEB5ADED37
:1007D000B57EE00000000000018000000000000085
:1007E000000000038000000000000000000007C0BF
:1007F00000000000000000000007C0000000000032
:10080000000000000FC00000000000000000001FFA
:10081000E00000000000000000001FE000000000F9
:1008200000000000003FE0000000000000000000A9
:100830003FF00000000000000000007FF00000001A
:10084000000000001FF87FF0000000000000003FE3
:10085000FE7FF0000000000000003FFF7FF000007E
:1008600000000000001FFFFBE0000000000000008F
:100870000FFFF9FFC00000000000000FFFF9FFF8B4
:1008800000000000000007FFF1FFFF000000000073
:100890000003FC73FFFF80000000000001FE3FFF2B
:1008A000FF80000000000000FF1E0FFF000000009E
:1008B0000000007FFE1FFC000000000000003FFF62
:1008C000FFF8000000000000000FDFFFE000000064
:1008D000000000001F19FFC0000000000000003FE2
:1008E0003CFF00000000000000007E7CF8000000DB
:1008F00000000000007FFE7C0000000000000000FF
:10090000FFFFFC0000000000000000FFFFFE0000F1
:10091000000000000000FFFFFE00000000000000DB
:1009200001FFEFFE0000000000000001FFCFFE000D
:1009300000000000000003FF07FE000000000000B0
:100940000003FC07FE0000000000000003F003FEAF
:1009500000000000000000018000FE000000000018
:1009600000000000007E0000000000000000000009
:100970003E000000000000000000000C000000002D
:100980000000078000FC000003C000000007800199
:10099000FC000003C0000000078001FC000003C051
:1009A000000000078001E00000001E00000007803A
:1009B00001E00000001E007FE3F79FF9FDE7787B70
:1009C000DFC0FFF7FFBFFDFDFF787BDFC0FFF7FF54
:1009D000BFFDFDFF787BDFC0F0F787BC3DE1FF780E
:1009E0007BDE00F0F787BC3DE1F0787BDE0000F7AE
:1009F00087803DE1E0787BDE007FF7879FFDE1E0C7
:100A0000787BDE00FFF787BFFDE1E0787BDE00F05A
:100A1000F787BC3DE1E0787BDE00F0F787BC3DE185
:100A2000E0787BDE00F0F787BC3DE1E0787BDE001C
:100A3000FFF7FFBFFDE1E07FFBDFC0FFF7FFBFFD7A
:100A4000E1E07FFBDFC07CF3F39F3DE1E03E7BCF45
:100A5000C00000000000000000000000FFFFFFFFDA
:100A6000FFFFFFFFFFFFC0FFFFFFFFFD68DB111A65
:100A700031C0FFFFFFFFFD2B5AFB6AEFC0FFFFFFF6
:100A8000FFFD4B5B3B1A33C0FFFFFFFFFD6B5BDBE2
:100A90006AFDC05353443133303620616C6C6F6350
:100AA0006174696F6E206661696C65640054727A66
:100AB0006563690044727567690050696572777390
:100AC0007A7900001B170C1711241FBECFEFD8E056
:100AD000DEBFCDBF11E0A0E0B1E0E6E8F8E302C080
:100AE00005900D92A036B107D9F723E0A0E6B1E05A
:100AF00001C01D92AF30B207E1F715E0C3E6D5E0C3
:100B000004C02197FE010E94031BC236D107C9F71A
:100B10000E948C170C94361C0C940000FC01918DE3
:100B2000228D892F90E0805C9F4F821B91098F73EB
:100B30009927089580E090E0892B29F00E943F15C5
:100B400081110C9400000895FC0177FDB9C08085E7
:100B50009185681779070CF0B3C057FDB1C0828545
:100B60009385481759070CF008958589823079F4E8
:100B700084819581DC01A61BB70BBD016150710911
:100B800086819781DC01A41BB50BAD010EC08330BB
:100B900009F084C064277527CA018627972768272C
:100BA000792746815781481B590B41505109213003
:100BB000310531F048F12230310509F44AC0089579
:100BC000CA0157FD07969C01A3E035952795AA9584
:100BD000E1F7A481B5812A9FC0012B9F900D3A9F18
:100BE000900D1124680F791F068CF78DE02DE60F0C
:100BF000F71F4770552781E090E001C0880F4A95A4
:100C0000EAF79081892B48C0CA0157FD07969C01DD
:100C100093E0359527959A95E1F7A481B5812A9FB0
:100C2000C0012B9F900D3A9F900D1124680F791FE2
:100C3000068CF78DE02DE60FF71F4770552781E0F2
:100C400090E001C0880F4A95EAF78095908189234A
:100C500023C0CA0157FD07969C0183E0359527956F
:100C60008A95E1F7A481B5812A9FC0012B9F900D41
:100C70003A9F900D1124680F791F068CF78DE02D97
:100C8000E60FF71F4770552781E090E001C0880FFD
:100C90004A95EAF79081892780830895813009F089
:100CA00086CF6427752746275727642775278481B1
:100CB0009581DC01A61BB70BBD016150710977CF8F
:100CC00008950895FC016370658B84819581268168
:100CD0003781613039F0633029F09187808733871D
:100CE00022870895318720879387828708956F929E
:100CF0007F928F929F92AF92BF92CF92DF92EF92AC
:100D0000FF920F931F93CF93DF93EC014B015A0196
:100D100069013801E881F9810284F385E02D0995A4
:100D2000E881F9810288F389E02D87019601A50108
:100D3000B401CE010995A501460D571D4150510939
:100D4000E881F9810288F389E02D9601B401CE0192
:100D50000995E881F9810088F189E02D9301A501C9
:100D6000B401CE010995C80CD91CB60161507109B6
:100D7000E881F9810088F189E02D9301A501CE0178
:100D80000995E881F9810688F789E02DCE01DF9188
:100D9000CF911F910F91FF90EF90DF90CF90BF9078
:100DA000AF909F908F907F906F9009948F929F92B9
:100DB000AF92BF92CF92DF92EF92FF920F931F9369
:100DC000CF93DF934C016B015A01E901DC01ED91F6
:100DD000FC916217730781F40417150724F48B2D17
:100DE0005801042F182F0A191B0998012F5F3F4F34
:100DF000048CF58DE02D12C04017510709F5261718
:100E0000370724F48D2D6901C62FD82F9E012C1988
:100E10003D092F5F3F4F068CF78DE02D8701A5011F
:100E2000B601C4010995DF91CF911F910F91FF90F9
:100E3000EF90DF90CF90BF90AF909F908F900895EC
:100E40000284F385E02D0995D401ED91FC9104888D
:100E5000F589E02D9E01A501B601C4010995D401D3
:100E6000ED91FC910688F789E02DC401DF91CF91C7
:100E70001F910F91FF90EF90DF90CF90BF90AF90B8
:100E80009F908F900994EF92FF920F931F93DC0134
:100E90001A960D911C911B9718962D913C911997BC
:100EA000ED91FC9100A0F1A1E02D7B0140E050E02C
:100EB00060E070E009951F910F91FF90EF90089509
:100EC0004F925F926F927F928F929F92AF92BF925A
:100ED000CF92DF92EF92FF920F931F93CF93DF9306
:100EE0006C012B015A0139014801DC01ED91FC91A3
:100EF0000284F385E02D0995E201640C751CD6018E
:100F0000ED91FC91C615D7055CF40088F189E02DC0
:100F100087019401A501BE01C60109952196EFCF75
:100F20000688F789E02DC601DF91CF911F910F91BF
:100F3000FF90EF90DF90CF90BF90AF909F908F90F9
:100F40007F906F905F904F9009948F929F92AF9295
:100F5000BF92CF92DF92EF92FF920F931F93CF93A6
:100F6000DF93EC015B014A016901E881F9810284A8
:100F7000F385E02D099595012C0D3D1D215031097A
:100F8000E881F9810488F589E02D78018401A401C4
:100F9000B501CE010995E881F9810688F789E02D30
:100FA000CE01DF91CF911F910F91FF90EF90DF90D5
:100FB000CF90BF90AF909F908F9009948F929F9207
:100FC000AF92BF92CF92DF92EF92FF920F931F9357
:100FD000CF93DF93EC015B014A0169017801E8815D
:100FE000F9810284F385E02D0995C80CD91C86018E
:100FF00001501109E881F9810488F589E02D9501F6
:10100000A401B501CE010995E881F9810688F78927
:10101000E02DCE01DF91CF911F910F91FF90EF90C6
:10102000DF90CF90BF90AF909F908F9009940895DC
:10103000EF92FF920F931F93DC01ED91FC9100A0C2
:10104000F1A1E02D09951F910F91FF90EF90089568
:101050000F931F93DC01ED91FC91068CF78DE02D31
:1010600009951F910F9108950F931F93DC01ED9146
:10107000FC91048CF58DE02D09951F910F91089539
:10108000DC01ED91FC910084F185E02D09942F9213
:101090003F924F925F926F927F928F929F92AF9208
:1010A000BF92CF92DF92EF92FF920F931F93CF9355
:1010B000DF9300D000D000D0CDB7DEB72C017E8307
:1010C0006D836A015901C801FC82EB824801841AD0
:1010D000950A97FE03C091948194910835012D8162
:1010E0003E81621A730A77FE03C07194619471089D
:1010F000681479045CF43A2D2B2D5C01832F922F18
:101100003D812E81DE82CD82C32ED22EAD81BE8165
:10111000AA16BB065CF43C2D2D2D6C01832F922F5B
:101120003D812E81BE82AD82A32EB22E85012D81FE
:101130003E81021B130B1C012C183D0837FE03C017
:10114000319421943108780117FF03C03FEFE31A6F
:10115000F30AF594E794C816D9062CF08FEF9FEFA9
:101160009A83898304C0A1E0B0E0BA83A9832D816A
:101170003E81A216B30624F1D201ED91FC910484C4
:10118000F585E02D2B813C816814790424F44D8190
:101190005E81B60103C0A6016D817E81C201099501
:1011A000E218F308F7FE06C029813A81C20ED31E69
:1011B000E00EF11E8D819E8101969E838D83D7CF97
:1011C00026960FB6F894DEBF0FBECDBFDF91CF914C
:1011D0001F910F91FF90EF90DF90CF90BF90AF9055
:1011E0009F908F907F906F905F904F903F902F9047
:1011F000089585ED8093BC008091BC0084FDFCCFF8
:101200001092ED0108954091A401262F30E0240FA3
:10121000311D21323105DCF42091ED012430C9F477
:10122000FC0180E090E0861758F43091A4012191F0
:10123000DC01AC57BE4FA30FB11D2C930196F3CF29
:101240008091A401680F6093A40180E0089581E07B
:10125000089582E0089508950895E091FE02809136
:10126000FD02E81730F4F0E0EC59FE4F808190E089
:1012700008958FEF9FEF08959091FE028091FD02F7
:10128000981750F4E92FF0E0EC59FE4F208130E040
:101290009F5F9093FE0202C02FEF3FEFC9010895B8
:1012A0008091FD0290E02091FE02821B9109089539
:1012B000CF92DF92EF92FF920F931F93CF93DF9322
:1012C0007C01CB018A012091EE01222389F0EB0100
:1012D0006B01C40ED51ECC15DD0569F06991D701EF
:1012E000ED91FC910190F081E02DC7010995F3CFBC
:1012F000642F0E940309C801DF91CF911F910F91C4
:10130000FF90EF90DF90CF900895CF93DF931F92DF
:10131000CDB7DEB769832091EE012223D1F0209171
:101320001102203240F021E030E0FC0133832283BF
:1013300080E090E015C08091EF01E82FF0E0E051EF
:10134000FE4F998190838F5F8093EF01809311020C
:1013500005C061E0CE0101960E94030981E090E0A2
:101360000F90DF91CF910895089580E090E0089567
:101370000F931F93CF93DF93DC015596EC91559714
:10138000E23071F0E330E9F0E13079F5FB011496D9
:101390000D90BC91A02DA41BB50BA21BB30B18C0C4
:1013A000EC01EC81FD81E61BF70BBF016150710977
:1013B000EE81FF81DF01A41BB50BAD01421B530B76
:1013C00014C0DA01EC01EE81FF81E61BF70B3197C7
:1013D000F7FD0DC0EC014E815F81E417F5073CF489
:1013E000AF01BD010E94F71202C00E945E13DF919F
:1013F000CF911F910F9108950F931F93DC01559684
:10140000EC915597E23061F0E33009F1E13081F57C
:101410001496ED91FC911597E41BF50B319723C0C1
:10142000DC011496ED91FC911597DF01A61BB70B1B
:10143000BD01DC011696ED91FC911797DF01A41B0D
:10144000B50BAD0141505109621B730B11C0FA017C
:10145000DC0116964D915C911797DA01A61BB70B2C
:10146000BD01621B730BAB01BF010E945E130CC078
:1014700057FD0AC0DC011696ED91FC9117974E17A7
:101480005F0714F40E94F7121F910F910895AF9215
:10149000BF92CF92EF92FF920F931F93CF93DF9360
:1014A000EC01262F888D998D009709F040C06A3095
:1014B00059F41D861C862C898E859F8538E0239FD4
:1014C000800D911D112441C06D3009F4AAC08E8990
:1014D0008823C1F03C898C859D8546E0349F800D32
:1014E000911D112448855985481759075CF41D86BC
:1014F0001C868E859F8548E0349F800D911D1124A8
:101500009F878E87EA88FB88088919894E855F85C1
:101510006C857D85CC88CE010E94DD102C898C8560
:101520009D8536E0239F800D911D112442C06A30B5
:1015300079F41D861C862C89FC013696E4918E85F3
:101540009F852E9F800D911D11249F878E8769C0D6
:101550006D3009F466C0FC0134963491631708F4C9
:1015600060C03196E491E61708F45BC0FC01329646
:1015700065917491422F50E0431B510937E0349F2D
:101580005001359FB00C1124A60EB71EF5013296FE
:1015900034913196E491332311F0E1110DC0F5013E
:1015A0003496E4912C898C859D85E29F800D911D58
:1015B00011249D878C8735C0F501359644915E894D
:1015C000552311F16C89E32FF0E0E40FF11D47FD85
:1015D000FA956E9FD0016F9FB00D11244C855D85EB
:1015E0004A0F5B1FE885F985E417F5076CF41D8643
:1015F0001C86FC013696E4918E859F856E9F800D3A
:10160000911D11249F878E87EA88FB880889198994
:101610004E855F856C857D85CC88CE010E94DD106E
:10162000BECF81E090E0DF91CF911F910F91FF90AD
:10163000EF90CF90BF90AF9008952FB7F89480911E
:10164000010390910203A0910303B09104032FBF03
:10165000409160015091610160916201709163015C
:10166000841B950BA60BB70B893C9105A105B10511
:1016700050F1809100038F5F8093000387E00E9408
:1016800013148093060186E00E94131480930501D1
:1016900085E00E9413148093040181E08093FF028F
:1016A0002FB7F8948091010390910203A091030356
:1016B000B09104032FBF8093600190936101A093C8
:1016C0006201B09363010895FC01848DDF01A80FCE
:1016D000B11DA35ABF4F2C91848D90E001968F735A
:1016E0009927848FA689B7892C93A089B1898C9179
:1016F000837080648C93938D848D981306C00288C8
:10170000F389E02D80818F7D8083089508958EBDBB
:1017100000000DB407FEFDCF8EB508951F93CF9343
:10172000DF93FC01848D958D009729F1162FEF0131
:1017300020A131E03093EE01209310021092EF01CE
:1017400010921102DC01ED91FC910190F081E02DED
:1017500060E009958C8D9D8DDC01ED91FC910190EF
:10176000F081E02D612F09958C8D9D8DDF91CF91BA
:101770001F910C94A50DA4A5B5A59C9182A9809557
:1017800089238C93828D938D892B31F0862FDF9165
:10179000CF911F910C94870B28E030E080E8A0A542
:1017A000B1A590A9462F482319F04C91942B03C062
:1017B0004C91909594239C93A2A5B3A54C9191A98B
:1017C000942B9C93A2A5B3A54C9191A99095942399
:1017D0009C9386952150310911F7DF91CF911F918C
:1017E00008958CBD9DBD08951F93CF93DF93EC01A9
:1017F000162F8C8D9D8D892BB1F02EA93FA948AD58
:1018000059AD60E074E284EF90E00E94E11ADA01E1
:10181000C9014097A109B109B695A79597958795F4
:101820008093B8000FC08A8D9B8D892B21F08CA9E5
:101830009DA90E94F10BEEA5FFA590818BA9809533
:1018400089238083111102C066EA01C067EACE01D4
:101850000E948E0B8C8D9D8D892BB1F02AAD3BADF6
:101860004CAD5DAD60E074E284EF90E00E94E11A5F
:10187000DA01C9014097A109B109B695A7959795D5
:1018800087958093B80006C0EEA5FFA590818BA92F
:10189000892B8083DF91CF911F9108951F920F9222
:1018A0000FB60F9211242F933F934F935F936F9333
:1018B0007F938F939F93AF93BF93EF93FF93809109
:1018C000B900887F803609F49CC068F5883209F435
:1018D0005BC090F4803109F454C038F4882309F4D3
:1018E000F6C0883009F44DC0F6C0883109F44CC008
:1018F000803209F45DC0EFC0803409F468C048F458
:10190000803309F455C0883309F0E5C08093EB01BA
:10191000D8C0803509F44FC0883509F45DC08834DB
:1019200009F0D9C0D6C0883909F4C7C0A8F48837EF
:1019300009F467C038F4883609F463C0803709F4C5
:1019400060C0C9C0883809F4B8C0803909F45FC0E4
:10195000803809F0C0C05BC0803B09F486C038F411
:10196000803A09F466C0883A09F47FC0B4C0803C6C
:1019700009F4A7C0883C09F4A4C0883B09F48AC0D4
:10198000AAC08091C80110C09091EA018091E9013C
:10199000981770F5E091EA0181E08E0F8093EA01DB
:1019A000F0E0E753FE4F80818093BB0085EC86C05A
:1019B0008093EB018EC0E091EA0181E08E0F80936D
:1019C000EA018091BB00F0E0E753FE4F80839091E5
:1019D000EA018091E9016EC0E091EA0181E08E0F99
:1019E0008093EA018091BB00F0E0E753FE4F8083D3
:1019F0008091EC0181116DC081E08093C70184EA80
:101A000061C083E08093ED011092C601CFCF809139
:101A1000C601803208F051C0E091C60181E08E0F0E
:101A20008093C6018091BB00F0E0EA55FE4F8083B1
:101A3000BDCF85EC8093BC001092ED018091C60172
:101A4000803230F4E091C601F0E0EA55FE4F10829A
:101A50006091C60170E0E091F902F091FA0286EA25
:101A600091E009951092C60136C084E08093ED01A3
:101A70001092A5011092A401E091FB02F091FC02EA
:101A800009958091A401811105C081E08093A40192
:101A900010928401E091A50181E08E0F8093A50151
:101AA000F0E0EC57FE4F80818093BB009091A50140
:101AB0008091A401981708F479CF85E88093BC0041
:101AC0000AC085EC8093BC001092ED0104C0109216
:101AD000EB010E94F908FF91EF91BF91AF919F91A7
:101AE0008F917F916F915F914F913F912F910F90C7
:101AF0000FBE0F901F901895833081F028F481302D
:101B000099F08230A1F008958730A9F08830B9F0BB
:101B10008430D1F4809180008F7D03C0809180005B
:101B20008F7780938000089584B58F7702C084B545
:101B30008F7D84BD08958091B0008F7703C0809120
:101B4000B0008F7D8093B000089530911102313242
:101B500008F04BC08091ED018111FCCF90911002F3
:101B600022E02093ED0121E02093EC012FEF209360
:101B7000EB011092EA013093E901E0EFF1E0A9EC0A
:101B8000B1E020E0321721F041914D932F5FFACF61
:101B90001092C8012091C801990F922B9093C8010F
:101BA0009091C701913061F41092C7019091C801E2
:101BB0009093BB009091BC0093FDF8CF95EC01C0D1
:101BC00095EE9093BC009091ED019230E1F39091ED
:101BD000EB019F3F79F08091EB01803241F08091E1
:101BE000EB01803331F084E005C081E003C082E086
:101BF00001C083E01092EF01109211021092EE01E9
:101C00000895DF92EF92FF920F931F93CF93DF938C
:101C1000D82ED92FC62F8091CB029091CC0200975D
:101C200009F454C02091CF0231E03093EE012093AB
:101C300010021092EF0110921102DC01ED91FC9163
:101C40000190F081E02D60E00995ED2CFD2E11E072
:101C5000D1E08091CB029091CC02CC2371F1103273
:101C6000C8F00E94A50D8091CF02D093EE01809321
:101C700010021092EF01109211028091CB0290910C
:101C8000CC02DC01ED91FC910190F081E02D60E04F
:101C9000099511E08091CB029091CC02F7016491FB
:101CA000DC01ED91FC910190F081E02D09951F5F21
:101CB000C150BFEFEB1AFB0ACCCFDF91CF911F9140
:101CC0000F91FF90EF90DF900C94A50DE091DB0257
:101CD000F091DC0290818091E102809589238083DC
:101CE0000D2D1D2FCC2309F439C0F80184912091CA
:101CF000C9023091CA02232B31F00E94870BC150D8
:101D00000F5F1F4FEFCF28E030E040E8E091D702AF
:101D1000F091D8029091DF02582F542319F050818E
:101D2000952B03C05081909595239083E091D90223
:101D3000F091DA0250819091E002952B9083E0912E
:101D4000D902F091DA0250819091E00290959523AA
:101D50009083469521503109C9F6D1CFDF91CF91BB
:101D60001F910F91FF90EF90DF900895EF92FF92F7
:101D70000F931F93CF93DF938091CB029091CC026E
:101D8000892BD1F02091E5023091E6024091E702E3
:101D90005091E80260E074E284EF90E00E94E11A62
:101DA000DA01C9014097A109B109B695A7959795A0
:101DB00087958093B80016C08091C9029091CA029D
:101DC000892B31F08091E3029091E4020E94F10BA3
:101DD000E091DD02F091DE0290818091E202809537
:101DE0008923808365E082ED95E00E94010E609179
:101DF000B30261508FEA92E00E948E0B2091B502EF
:101E00003091B602C901079697FD079633E0959584
:101E100087953A95E1F72091B3023091B402829F01
:101E20008001839F100D929F100D1124C091CD024F
:101E3000D091CE028091CB029091CC020C0F1D1F4D
:101E4000009709F44CC02091CF0231E03093EE01AD
:101E5000209310021092EF0110921102DC01ED911B
:101E6000FC910190F081E02D60E40995FF24F3944A
:101E7000EE24E3948091CB029091CC020C171D07C5
:101E800059F1BFE1BF15D0F40E94A50D8091CF029A
:101E9000E092EE01809310021092EF011092110275
:101EA0008091CB029091CC02DC01ED91FC910190EC
:101EB000F081E02D60E40995FF24F3948091CB023A
:101EC0009091CC026991DC01ED91FC910190F0813F
:101ED000E02D0995F394CECF0E94A50D41C0E0916D
:101EE000DB02F091DC0290818091E102892B8083FA
:101EF0000C171D07A9F189912091C9023091CA02DE
:101F0000232B19F00E94870BF3CF28E030E040E844
:101F1000E091D702F091D8029091DF02582F54231C
:101F200019F05081952B03C0508190959523908393
:101F3000E091D902F091DA0250819091E002952B64
:101F40009083E091D902F091DA0250819091E00201
:101F5000909595239083469521503109C9F6C8CFB5
:101F60008091CB029091CC02892BD1F02091E90293
:101F70003091EA024091EB025091EC0260E074E291
:101F800084EF90E00E94E11ADA01C9014097A109AB
:101F9000B109B695A795979587958093B80017C016
:101FA000E091DD02F091DE0290818091E202892BC6
:101FB00080838091C9029091CA02892B41F0DF9100
:101FC000CF911F910F91FF90EF900C94860BDF91B2
:101FD000CF911F910F91FF90EF9008952091B5023E
:101FE0003091B602C901079697FD079623E09595B3
:101FF00087952A95E1F72091B3023091B402829F30
:10200000A001839F500D929F500D112460E070E05D
:102010008091CD029091CE020C942F1C3F924F9252
:102020005F926F927F928F929F92AF92BF92CF9268
:10203000DF92EF92FF920F931F93CF93DF9300D025
:1020400000D000D0CDB7DEB72C013B014A015901C9
:10205000C901079697FD07969C0193E03595279552
:102060009A95E1F73C832B83C12CD12CE12CF12CE8
:10207000312CC3018E0D9F1D9A838983E016F106D2
:10208000C4F51E821D822D813E812A153B054CF52B
:10209000C90187709927892B11F0330C0EC0ED818F
:1020A000FE81F7FD379683E0F595E7958A95E1F790
:1020B000EC0DFD1DE80DF91D349037FE0CC021E03C
:1020C00030E049815A816D817E81640D751D8FEAF2
:1020D00092E00E9440088D819E8101969E838D83AF
:1020E000D2CF9FEFE91AF90A2B813C81C20ED31E91
:1020F000C0CF26960FB6F894DEBF0FBECDBFDF91DE
:10210000CF911F910F91FF90EF90DF90CF90BF90F4
:10211000AF909F908F907F906F905F904F903F9087
:1021200008958F929F92AF92BF92EF92FF920F937A
:102130001F93CF93DF93CDB7DEB7A1970FB6F89477
:10214000DEBF0FBECDBF7C01262F30E040E050E067
:1021500019A28E010F5D1F4F8AE0882E912CA12CB1
:10216000B12CCA01B901A50194010E94E11A605D78
:10217000F80162938F01211531054105510589F759
:10218000BF01C7010E9475168C016DE571E0C701A2
:102190000E947516800F911FA1960FB6F894DEBFAE
:1021A0000FBECDBFDF91CF911F910F91FF90EF90A8
:1021B000BF90AF909F908F9008952F923F924F9233
:1021C0005F926F927F928F929F92AF92BF92CF92C7
:1021D000DF92EF92FF920F931F93CF93DF93CDB7D0
:1021E000DEB76B970FB6F894DEBF0FBECDBF9B8FE7
:1021F0008A8F5B011A01D22E1F830E833701C98299
:10220000DC0158962D913C9159972115310509F023
:10221000E6C018968D919C911997681779070CF074
:10222000CDC11A968D919C911B97481759070CF0B8
:10223000C5C18C2C912CFB0126E0C29EE00DF11D46
:102240001124FB87EA871E161F060CF0B7C1A401F4
:1022500083E0440F551F8A95E1F75D874C87CA01DB
:10226000820D931D181619060CF0A8C157968C9173
:10227000811104C05FEA5D1508F4D394AA8DBB8D6B
:10228000ED91FC9111970284F385E02DCD01099524
:10229000B5E0DB9EC0011124F5013596FF87EE877E
:1022A000BB82AA8225019C012A193B09398B288B04
:1022B000A101485F5F4F5B8B4A8BE889F989E40D88
:1022C000F51DEE52FF4F5491588761013D822C82DB
:1022D000888580FF13C0AA8DBB8DED91FC91B981DB
:1022E000B13031F40484F585E02D2E813F8116C094
:1022F0000684F785E02DEE80FF801AC0EE81FF8115
:10230000E615F705F1F0AA8DBB8DED91FC91B98131
:10231000B13051F40484F585E02D9301A601B2019A
:102320008A8D9B8D09950DC00684F785E02D73017C
:10233000840194014C815D816A817B818A8D9B8DB2
:102340000995E885E695E887FFEFCF1ADF0A2C812B
:102350003D81280D391D3D832C834A895B89C41634
:10236000D50609F0B5CF5FEF451A550A8A819B81E2
:10237000880D991D9B838A83AE85BF854A165B06AF
:1023800009F09BCFEE81FF81E615F70509F4F4C053
:10239000EA8DFB8DA081B181F981F13079F4B5012D
:1023A0006B5F7F4F5096ED91FC915197830128E030
:1023B00030E0A1018A8D9B8D0995DEC06A857B8501
:1023C000681979091E96ED91FC911F9773010C8590
:1023D0001D859401A1018A8D9B8D0995CDC0F901C0
:1023E0003496E491DE1AF901329685919491B7E022
:1023F000DB9E800D911D1124F901259134913B8BB9
:102400002A8BFC01259134912901FC013296C4905C
:10241000319634913E87329614913196D490498109
:10242000423058F0612E012E000C77088D2D0D2CB6
:10243000000C990B9987888704C019861886612C2F
:10244000712CAA8DBB8DED91FC9111970284F385BF
:10245000E02DCD010995B9818B2E912C689CC0018E
:10246000699C900D789C900D1124FC01EA0DFB1DD8
:10247000FD87EC871A82712C612CE12F110FFF0B65
:1024800095012E0F3F1F3B872A87AC0CB11CA5017D
:102490004E0F5F1F5F8B4E8BC1018D0D911DD7FCC1
:1024A0009A95998F888F9E85691608F065C0862D4C
:1024B00090E048855985480F591F489D9001499DD6
:1024C000300D589D300D1124D101A20FB31FB98BCF
:1024D000A88BEC85FD85FD83EC83AA84BB84DA8020
:1024E000FA85DF1A288D398D280F391F3D8B2C8BEB
:1024F0008D2D8A0D4E895F89A416B506C1F18770AE
:1025000041F4C2010196EA89FB89E40DF51D74903E
:102510002C0177FE21C0AA8DBB8DED91FC91B98174
:10252000B13061F40484F585E02D2E813F814C8922
:102530005D89B5018A8D9B8D09950EC00684F7854E
:10254000E02DEE80FF8084019401488959896C81D7
:102550007D818A8D9B8D0995770CEFEFAE1ABE0AAF
:102560002C813D81280D391D3D832C83C1CF3A81BB
:102570003C0D3A83639497CFAA8DBB8DED91FC916E
:1025800011970688F789E02DCD016B960FB6F89468
:10259000DEBF0FBECDBFDF91CF911F910F91FF9096
:1025A000EF90DF90CF90BF90AF909F908F907F90F3
:1025B0006F905F904F903F902F9009946B960FB65D
:1025C000F894DEBF0FBECDBFDF91CF911F910F9169
:1025D000FF90EF90DF90CF90BF90AF909F908F9043
:1025E0007F906F905F904F903F902F9008950F9342
:1025F0001F93CF93DF9377FF04C0260F371F60E050
:1026000070E0DC011496CD91DC911597FB01E20F8F
:10261000F31FCE17DF071CF49E01261B370B121683
:1026200013060CF046C0FA0157FD3796DF01E3E0D0
:10263000B595A795EA95E1F7AC9FF001AD9FF00D38
:10264000BC9FF00D11246E0F7F1FDC015E96ED9193
:10265000FC915F97E60FF71F4770552781E090E0E8
:1026600001C0880F4A95EAF7482F0130110539F06B
:1026700078F002301105E9F42E0F3F1F13C02E0F22
:102680003F1FE217F307A9F08081842B8193F9CFD4
:1026900080952E0F3F1FE217F30759F09081982382
:1026A0009193F9CFE217F30721F08081842781937A
:1026B000F9CFDF91CF911F910F910895EF92FF9283
:1026C0000F931F93CF93DF93EC0177FDA5C0EC80B0
:1026D000FD806E157F050CF09FC057FF04C0240FCE
:1026E000351F40E050E08E819F81FA01E20FF31F19
:1026F0008E179F071CF49C01241B350B1216130622
:102700000CF08AC0922F842F8695869586958E9D93
:10271000D0018F9DB00D11246A0F7B1FAE8DBF8D30
:10272000A60FB71F4770B1F188E0841B482F682FB0
:1027300070E0FB01E653FF4FE491281798F4621B09
:1027400071092FEF30E002C0359527956A95E2F7C1
:10275000E2230130110549F078F00230110509F04B
:102760005BC00EC00130110519F48C91E82B0AC032
:102770000130110508F049C0E0958C91E82302C0B2
:102780008C91E827EC93941708F446C02C813D8186
:10279000A20FB31FE92FE41BE830F8F00230110557
:1027A00061F48E2F9C9190959C932C813D81A20F7A
:1027B000B31F88508830B0F70FC081E001151105B4
:1027C00009F480E081959E2F8C932C813D81A20F8E
:1027D000B31F98509830C0F7E770EE23E9F0F0E0AF
:1027E000EE53FF4FE4910130110539F048F002300B
:1027F000110591F48C91E82706C08C91E82B03C059
:10280000E0958C91E823EC9307C00230110509F4A0
:10281000B7CFAE0DBF1DBECFDF91CF911F910F91EE
:10282000FF90EF900895CF93DF93282F30E0F901C8
:10283000E255FF4F8491F901E656FF4FD491F9011B
:10284000EA57FF4FC491CC2391F081110E947C0D77
:10285000EC2FF0E0EE0FFF1FE458FF4FA591B4916D
:10286000EC91ED2381E090E021F480E002C080E073
:1028700090E0DF91CF9108951F93CF93DF93282F9E
:1028800030E0F901E255FF4F8491F901E656FF4F20
:10289000D491F901EA57FF4FC491CC23C1F0162F10
:1028A00081110E947C0DEC2FF0E0EE0FFF1FEE581F
:1028B000FF4FA591B4919FB7F894111104C08C916A
:1028C000D095D82302C0EC91DE2BDC939FBFDF9123
:1028D000CF911F910895CF93DF9390E0FC01E656CE
:1028E000FF4F2491FC01EA57FF4F8491882361F147
:1028F00090E0880F991FFC01E859FF4FC591D491D2
:10290000FC01EE58FF4FA591B491611109C09FB72A
:10291000F8948881209582238883EC912E230BC024
:10292000623061F49FB7F8948881322F3095832309
:102930008883EC912E2B2C939FBF06C08FB7F89401
:10294000E8812E2B28838FBFDF91CF9108958F923E
:102950009F92AF92BF92CF92DF92EF92FF926B0164
:102960007C010E94B8154B015C01C114D104E10443
:10297000F104F1F00E94B815DC01CB018819990926
:10298000AA09BB09883E9340A105B10570F321E077
:10299000C21AD108E108F10888EE880E83E0981E7B
:1029A000A11CB11CC114D104E104F10419F7DDCF5D
:1029B000FF90EF90DF90CF90BF90AF909F908F905F
:1029C00008950895CF92DF92EF92FF920F931F9395
:1029D000CF93DF936C017A018B01C0E0D0E0CE157C
:1029E000DF0581F0D8016D918D01D601ED91FC914B
:1029F0000190F081E02DC6010995892B11F02196F7
:102A0000EECF7E01C701DF91CF911F910F91FF9013
:102A1000EF90DF90CF900895FC01538D448D252FCA
:102A200030E0842F90E0821B930B541710F0CF9668
:102A3000089501970895FC01918D828D981761F09A
:102A4000828DDF01A80FB11D5D968C91928D9F5FE5
:102A50009F73928F90E008958FEF9FEF0895FC0190
:102A6000918D828D981731F0828DE80FF11D858D43
:102A700090E008958FEF9FEF08950E942A1C82E155
:102A800092E00E948E0521E0892B09F420E0822F3C
:102A90000895EF92FF920F931F93CF93DF93EC0172
:102AA00081E0888F9B8D8C8D981305C0E889F9890A
:102AB000808185FD26C0F62E0B8D10E00F5F1F4F25
:102AC0000F731127E02E8C8DE8120CC00FB607FC97
:102AD000FACFE889F989808185FFF5CFCE010E9480
:102AE000640BF1CF8B8DFE01E80FF11DE35AFF4F10
:102AF000F0829FB7F8940B8FEA89FB89808180620E
:102B00000AC09FB7F894EE89FF896083E889F98944
:102B100080818370806480839FBF81E090E0DF913B
:102B2000CF911F910F91FF90EF900895CF93DF9376
:102B3000EC01888D8823C9F0EA89FB89808185FDB5
:102B400005C0A889B9898C9186FD0FC00FB607FC16
:102B5000F5CF808185FFF2CFA889B9898C9185FF57
:102B6000EDCFCE010E94640BE7CFDF91CF910895A6
:102B70003FB7F8948091070390910803A09109034F
:102B8000B0910A0326B5A89B05C02F3F19F0019606
:102B9000A11DB11D3FBFBA2FA92F982F8827820FE3
:102BA000911DA11DB11DBC01CD0142E0660F771F33
:102BB000881F991F4A95D1F708951F920F920FB65B
:102BC0000F9211242F933F938F939F93AF93BF93B3
:102BD0008091010390910203A0910303B09104033B
:102BE0003091060323E0230F2D3720F40196A11D19
:102BF000B11D05C026E8230F0296A11DB11D20932B
:102C000006038093010390930203A0930303B09300
:102C100004038091070390910803A0910903B091E8
:102C20000A030196A11DB11D809307039093080329
:102C3000A0930903B0930A03BF91AF919F918F9125
:102C40003F912F910F900FBE0F901F9018951F92DC
:102C50000F920FB60F9211242F933F934F935F93D0
:102C60006F937F938F939F93AF93BF93EF93FF9354
:102C7000E0910201F09103010995FF91EF91BF915D
:102C8000AF919F918F917F916F915F914F913F9104
:102C90002F910F900FBE0F901F9018951F920F92BB
:102CA0000FB60F9211242F933F934F935F936F931F
:102CB0007F938F939F93AF93BF93EF93FF93E09195
:102CC0000001F09101010995FF91EF91BF91AF9142
:102CD0009F918F917F916F915F914F913F912F9134
:102CE0000F900FBE0F901F9018956115710579F028
:102CF000FB0101900020E9F73197AF01461B570B0C
:102D0000DC01ED91FC910280F381E02D099480E0DB
:102D100090E00895EF92FF920F931F93CF93DF936C
:102D20008C017B01C0E0D0E0F701EC0FFD1F649146
:102D3000662361F0D801ED91FC910190F081E02DC6
:102D4000C8010995892B11F02196EECF6DE571E050
:102D5000C8010E9475168C0F9D1FDF91CF911F91A6
:102D60000F91FF90EF9008951F920F920FB60F9260
:102D700011242F933F934F935F936F937F938F9380
:102D80009F93AF93BF93EF93FF9382E192E00E94F2
:102D9000640BFF91EF91BF91AF919F918F917F91C4
:102DA0006F915F914F913F912F910F900FBE0F90B8
:102DB0001F9018951F920F920FB60F9211242F9308
:102DC0008F939F93EF93FF93E0912202F091230260
:102DD0008081E0912802F091290282FD12C0908149
:102DE00080912B028F5F8F7320912C02821751F0FC
:102DF000E0912B02F0E0EE5EFD4F958F80932B0269
:102E000001C08081FF91EF919F918F912F910F9041
:102E10000FBE0F901F90189585E391E09093B0023C
:102E20008093AF028091CD029091CE02009711F075
:102E30000C94A11B0895E2E1F2E01382128288EE65
:102E400093E0A0E0B0E084839583A683B78321E17B
:102E500031E03183208325EC30E03587248724EC72
:102E600030E03787268720EC30E0318B208B21EC57
:102E700030E0338B228B22EC30E0358B248B26EC38
:102E800030E0378B268B118E128E138E148EEDEE62
:102E9000F2E01382128284839583A683B78383E250
:102EA00091E091838083EFEAF2E01382128220E8BE
:102EB00030E03583248380E490E0978386833187F4
:102EC000208793878287158A15861486178616862B
:102ED00081E0848B2FEF3FEF338B228B318B208B64
:102EE000868B178A118E108E85E391E09183808303
:102EF000138E128E158E148E178E168E8BE083A372
:102F00008CE084A389E085A388E086A38AE087A378
:102F100080E584AB15AA0895789484B5826084BD59
:102F200084B5816084BD85B5826085BD85B58160CD
:102F300085BD80916E00816080936E00109281004B
:102F40008091810082608093810080918100816006
:102F500080938100809180008160809380008091C7
:102F6000B10084608093B1008091B0008160809353
:102F7000B00080917A00846080937A0080917A001A
:102F8000826080937A0080917A00816080937A00D9
:102F900080917A00806880937A001092C100E0915D
:102FA0002202F091230282E08083E0911E02F091E0
:102FB0001F021082E0912002F09121028FEC8083A9
:102FC00010922A02E0912602F091270286E0808387
:102FD000E0912402F0912502808180618083E0915C
:102FE0002402F0912502808188608083E091240290
:102FF000F0912502808180688083E0912402F09125
:10300000250280818F7D80838091CD029091CE02B8
:10301000892B41F52091B5023091B602C90107967E
:1030200097FD079613E0959587951A95E1F72091FE
:10303000B3023091B402AC01429FC001439F900D96
:10304000529F900D11240E94091B9093CE028093F1
:10305000CD02892B39F463E97AE082E192E00E94A3
:103060008A16FFCF0E94EE0F2091B5023091B60272
:103070008091B3029091B40221323105A4F0B901DC
:103080006054710977FF02C06F5F7F4F7595679538
:103090008255910997FD019600E410E022E530E0A9
:1030A00043ED57E013C0B9016052710977FF02C0C8
:1030B0006F5F7F4F759567958357910997FD0196CF
:1030C00000E210E023E730E043EF55E09595879567
:1030D0000E940E1082E08093D0028091CB029091EA
:1030E000CC02892B09F43FC08091B5029091B602C1
:1030F000809711F08DE301C08CE38093CF02109292
:10310000FE021092FD021092EF0110921102109235
:10311000ED0181E08093EC011092C70161E082E152
:103120000E943C1461E083E10E943C148091B9004C
:103130008E7F8093B9008091B9008D7F8093B90014
:1031400088E48093B80085E48093BC008BE299E02A
:103150009093FC028093FB028CE299E09093FA0238
:103160008093F902BEC061E08091D4020E946B148A
:1031700061E08091D5020E946B148091D402082EE8
:10318000000C990BFC01EA57FF4FE491F0E0EE0FC1
:10319000FF1FEE58FF4F259134913093DC022093AE
:1031A000DB02FC01E656FF4FE491E093E1028091DF
:1031B000D502082E000C990BFC01EA57FF4FE49151
:1031C000F0E0EE0FFF1FEE58FF4FA591B491B093C2
:1031D000DE02A093DD02FC01E656FF4FE491E0938E
:1031E000E2028C91E82BEC938091C9029091CA0283
:1031F000892B09F434C0CFB7F8948091050381116D
:1032000027C0E0E9F0E08491E4EAF0E09491E82F4F
:10321000F0E0EE0FFF1FE859FF4FA591B491EC913C
:10322000E92321F461E08AE00E943C1461E08AE035
:103230000E946B148CB580618CBD8CB580648CBD94
:1032400061E08DE00E946B1461E08BE00E946B14E2
:10325000809105038F5F80930503CFBF42C061E07B
:103260008091D2020E946B1461E08091D3020E948F
:103270006B148091D202082E000C990BFC01EA57C6
:10328000FF4FE491F0E0EE0FFF1FEE58FF4F259146
:1032900034913093D8022093D702FC01E656FF4FB9
:1032A000E491E093DF028091D302082E000C990B89
:1032B000FC01EA57FF4FE491F0E0EE0FFF1FEE58DC
:1032C000FF4FA591B491B093DA02A093D902FC010B
:1032D000E656FF4FE491E093E0028C91E095E823FD
:1032E000EC938091D60287FD1EC061E00E946B14B2
:1032F00061E08091D6020E943C1461E070E080E0C1
:1033000090E00E94A71460E08091D6020E943C14D5
:103310006AE070E080E090E00E94A71461E0809194
:10332000D6020E943C148091CB029091CC02892B52
:10333000D1F02091E5023091E6024091E7025091F0
:10334000E80260E074E284EF90E00E94E11ADA01A2
:10335000C9014097A109B109B695A7959795879599
:103360008093B80016C08091C9029091CA02892B3F
:1033700031F08091E3029091E4020E94F10BE09120
:10338000DD02F091DE0290818091E2028095892336
:10339000808364E08FEE95E00E94010E6091B5029B
:1033A00061508FEA92E00E948E0B64E08BEE95E014
:1033B0000E94010E8091D002813011F064E101C0C1
:1033C00060E18FEA92E00E948E0B64E087EE95E068
:1033D0000E94010E8091B3029091B4028038910551
:1033E000E9F48091B5029091B6028032910531F4F2
:1033F00064E083EE95E00E94010E29C080349105BF
:1034000031F563E080EE95E00E94010E8091D002DC
:10341000813011F06FEC17C06FE915C0803691054F
:10342000B1F48091B5029091B602409781F463E0C7
:103430008DED95E00E94010E8091D002813011F057
:103440006FEA01C060E18FEA92E00E948E0B69EDA5
:103450008FEA92E00E948E0B8091D002813011F0B1
:1034600061EF01C062E28FEA92E00E948E0B66E09B
:1034700087ED95E00E94010E8091CB029091CC02E5
:10348000892BD1F02091E9023091EA024091EB02C0
:103490005091EC0260E074E284EF90E00E94E11A47
:1034A000DA01C9014097A109B109B695A795979589
:1034B00087958093B80011C0E091DD02F091DE02A3
:1034C00090818091E202892B80838091C902909142
:1034D000CA02892B11F00E94860B62E082E00E94F2
:1034E0006B1462E087E00E946B1462E086E00E9449
:1034F0006B1462E085E00E946B140E94B60E8DE1B1
:103500009BE09093010180930001809169008C7F82
:10351000826080936900E89A82E0F82EC1E0D0E0F2
:103520000AE010E00E94EE0FF092C302D093C202B4
:10353000C093C102D093C002C093BF021093BC02DB
:103540000093BB021092BE021092BD026091000374
:103550008FEA92E00E9491108091FF028823A1F0EF
:103560006091060182E192E00E9491106091050154
:1035700082E192E00E9491106091040182E192E068
:103580000E9491101092FF0280910601811103C0E8
:103590006AEB7AE00DC080910501811103C064EBF4
:1035A0007AE006C080910401811106C06DEA7AE0DC
:1035B0008FEA92E00E948A160E94B60E0E949A0537
:1035C000B1CFA1E21A2EAA1BBB1BFD010DC0AA1F81
:1035D000BB1FEE1FFF1FA217B307E407F50720F07C
:1035E000A21BB30BE40BF50B661F771F881F991FF7
:1035F0001A9469F760957095809590959B01AC0140
:10360000BD01CF010895EE0FFF1F0590F491E02D4D
:1036100009940F931F93CF93DF938230910510F499
:1036200082E090E0E0910D03F0910E0320E030E0A5
:10363000A0E0B0E0309719F14081518102811381FF
:1036400048175907C8F08417950769F4109731F0A7
:1036500012960C93129713961C9327C000930D0398
:1036600010930E0322C02115310519F0421753079C
:1036700018F49A01BD01EF01DF01F801DBCF21153C
:103680003105F9F0281B390B2430310580F48A818B
:103690009B816115710521F0FB019383828304C036
:1036A00090930E0380930D03FE01329644C0FE01F9
:1036B000E20FF31F819391932250310939832883BC
:1036C0003AC020910B0330910C03232B41F420913D
:1036D000090130910A0130930C0320930B032091D0
:1036E0000701309108012115310541F42DB73EB78E
:1036F00040910B0150910C01241B350BE0910B0301
:10370000F0910C03E217F307A0F42E1B3F0B2817D0
:10371000390778F0AC014E5F5F4F2417350748F04A
:103720004E0F5F1F50930C0340930B0381939193B3
:1037300002C0E0E0F0E0CF01DF91CF911F910F9147
:103740000895CF93DF93009709F481C0FC0132976D
:1037500013821282A0910D03B0910E03109781F491
:1037600020813181820F931F20910B0330910C0334
:103770002817390751F5F0930C03E0930B0367C04A
:10378000ED0120E030E0CE17DF0740F44A815B8195
:103790009E0141155105F1F0EA01F5CFD383C283B3
:1037A00040815181840F951FC817D90759F488812A
:1037B0009981840F951F0296918380838A819B81D2
:1037C000938382832115310529F4F0930E03E0934E
:1037D0000D033DC0E901FB83EA8349915991C40F70
:1037E000D51FEC17FD0761F480819181840F951F2F
:1037F0000296E90199838883828193819B838A83DE
:10380000E0E0F0E012968D919C911397009719F0EB
:10381000FD01DC01F7CF8D919C9111979D012E5FE9
:103820003F4F820F931F20910B0330910C032817F9
:10383000390769F4309729F410920E0310920D03A2
:1038400002C013821282B0930C03A0930B03DF918A
:10385000CF91089581E090E0F8940C94361CDC013F
:1038600001C06D9341505040E0F7089515E0C3E664
:10387000D5E004C0FE010E94031B2196C436D10787
:06388000C9F7F894FFCF28
:10388600E114E11401010100000F038000000000B3
:10389600004915E2140C1596158E051B152F1500FB
:1038A60000000085095809B509170850093C092D7B
:1038B6000900000000470AE214B509B409A4051777
:1038C600084008180834082808470817086206F44C
:1038D6000BB809FC0960074307D60677060D0A00F0
:00000001FF
